:020000040800F2
:1000000008070020E1020008E9020008EB020008EE
:10001000ED020008EF020008F102000800000000F5
:10002000000000000000000000000000F3020008D3
:10003000F502000800000000F7020008812900080E
:10004000FB020008FB020008FB020008FB0200089C
:10005000FB020008FB020008FB0200082D2200083A
:100060004922000865220008B1220008FB020008AE
:10007000FB020008FB020008FB020008FB0200086C
:10008000FB020008FB020008FB020008FB0200085C
:10009000FB020008FB020008FB020008FB0200084C
:1000A000992D0008B52E0008FB020008DD2D000880
:1000B000FB020008FB020008FB020008FB0200082C
:1000C000FB020008FB020008FB020008FB0200081C
:1000D000FB020008FB02000819320008FB020008BE
:1000E000FB020008FB020008FB020008FB020008FC
:1000F000FB020008FB020008FB020008FB020008EC
:10010000FB0200080000000000000000FB020008E5
:10011000FB020008FB020008FB020008FB020008CB
:10012000FB020008FB020008FB020008FB020008BB
:10013000FB020008FB0200080000000000000000B5
:10014000FB020008FB020008FB02000800000000A0
:10015000000000000000000000000000000000009F
:10016000FB020008FB020008FB020008FB0200087B
:10017000FB020008FB020008FB020008FB0200086B
:10018000FB020008FB020008000000000000000065
:10019000FB02000800F002F800F092F80AA090E8D4
:1001A000000C82448344AAF10107DA4501D100F032
:1001B00087F8AFF2090EBAE80F0013F0010F18BF6D
:1001C000FB1A43F0010318472036000040360000B8
:1001D000103A24BF78C878C1FAD8520724BF30C873
:1001E00030C144BF04680C60704700000023002445
:1001F00000250026103A28BF78C1FBD8520728BF37
:1002000030C148BF0B6070476E2900F089817029AA
:1002100000F0D382662903F06482652903F06182CD
:10022000672903F05E82612903F05D8203681B0A7F
:1002300028BF41F08001692900F03681642900F06F
:100240003381752900F030816F2900F060827829B0
:1002500000F09F82E92900F0FB81E42900F0F88199
:10026000F52900F0F581EF2900F05D82F82900F012
:100270009E820368DB0928BF41F08001632900F0FA
:10028000D387732900F0D887E32900F0E387F329A7
:1002900000F0E887002070471FB503F01DFA01F059
:1002A00033F804000020002103F000FA401C6060D5
:1002B0000020002103F0E4F9E0601FBD10B510BD7F
:1002C00000F0F4FF1146FFF7E7FF03F087F801F0B5
:1002D000D1F803B4FFF7F2FF03BC01F019F90000F5
:1002E0000948804709480047FEE7FEE7FEE7FEE7CA
:1002F000FEE7FEE7FEE7FEE7FEE7FEE70448054906
:10030000054A064B70470000FD29000895010008CA
:10031000080100200807002008030020080300202F
:100320007CB51D4616460C00009001D02044401EAE
:10033000074B7B442A4669460190304600F009F994
:1003400005461CB10020694600F016F928467CBD20
:100350004D020000032A40F2308010F0030C00F040
:10036000158011F8013BBCF1020F624498BF11F8EF
:1003700001CB00F8013B38BF11F8013BA2F10402A8
:1003800098BF00F801CB38BF00F8013B11F0030320
:1003900000F0E282083AC0F0088051F8043B083AC5
:1003A00051F804CBA0E80810F5E7121D5CBF51F826
:1003B000043B40F8043BAFF30080D20724BF11F8A0
:1003C000013B11F801CB48BF11F8012B24BF00F805
:1003D000013B00F801CB48BF00F8012B7047704784
:1003E0007047704770B5044685690068C10601D53D
:1003F000302600E02026C00707D070BDD4E90121D7
:1004000030469047206A401C20626D1EF6D570BDB4
:1004100070B5044685690078C00707D170BDD4E97E
:10042000012120209047206A401C20626D1EF6D5D5
:1004300070BD09684A0501D540B27047C905FCD5B1
:1004400000B2704709684A0501D5C0B27047C905B6
:10045000FCD580B2704770B50C460546012A05D020
:100460002878800600D5EA69002302E0012305E030
:100470005B1C934202D2E05C0028F9D1A869E6181F
:10048000C01AA861286A184428622846FFF7AAFF04
:1004900004E0D5E9012114F8010B9047B442F8D3E8
:1004A0002846FFF7B5FF70BD2DE9F0410646002450
:1004B00010687529314616A510D0FFF7BAFF00283D
:1004C00002DA404213A507E031688A0701D512A578
:1004D00002E0490704D511A5012401E0FFF7B2FFAE
:1004E00000210A2206F1240709E0B0FBF2FCB0FB70
:1004F000F2F302FB1C00303078541846491C0028E7
:10050000F3D123462A463046BDE8F04100F09BBABD
:10051000000000002D0000002B0000002000000063
:1005200011680268006A530501D508700AE0D30516
:1005300001D5088006E0130603D5C217C1E9000201
:1005400000E008600120704701694A1C02610878D8
:10055000704700B58FB0CDE9013100210591054903
:100560007944CDE903101146684600F031F90FB027
:1005700000BD0000E5FFFFFF0A6802F8010B0A60FA
:100580007047D1E900239A4202D2531C0B601070CD
:10059000704700002DE9FF5F15468A460446DFF8E4
:1005A000AC80F8440027D8E900103E46CDE90010A1
:1005B00010E03AF816106A4602A800F057FE411CF7
:1005C00007D02178890603D5E269391891420DD800
:1005D0000744761C2078800602D5E069B84205DD24
:1005E000AE42E6DB3AF816000028E2D1A069C01B53
:1005F000A0612046FFF7F6FED8E90010CDE9001013
:10060000002017E03AF818106A4602A800F02EFE03
:10061000B0F1FF3F81460BD000250DF1080B05E03E
:10062000D4E901211BF8050090476D1C4D45F7D317
:1006300008F10100B0428046E4DB206A38442062C1
:100640002046FFF7E5FEBDE8FF9F000046310000B1
:100650002DE9F0418046D21D22F007020025D2E9A3
:100660000002F52915A614D0011E72F1000106DA68
:100670000023D0EB030063EB020211A608E0D8F8D8
:1006800000108B0701D50FA602E0490701D50EA681
:1006900001251146002408F1240704E000F08EF93A
:1006A00030323A55641C50EA0102F7D12B463246EB
:1006B00021464046BDE8F04100F0C5B90000000009
:1006C0002D0000002B0000002000000030B40021AD
:1006D00000F1240408E002F00705D208303542EAB0
:1006E0004372DB086554491C52EA0305F3D10468E0
:1006F000002310A2250707D5A40600D421B1C469A0
:1007000001230DA2641EC46130BC00F09CB910B579
:10071000044621461068FFF795FE02462046BDE8D4
:1007200010400023D2E7D21D22F00701D1E90023B7
:10073000CCE700000000000030000000F0B40D46DF
:100740000188090502D5214C7C4402E01F4C7C4401
:100750000E34002100F1240608E002F00F07120910
:10076000E75D42EA03721B097754491C52EA03070A
:10077000F3D102780023120704D5702D06D009B1F9
:10078000022311342246F0BC00F05DB9012310347D
:10079000F8E770B504460D4621461068FFF752FE93
:1007A000024629462046BDE870400023C6E7D21D18
:1007B00022F00703D3E90023C0E70368126843F07F
:1007C000200303600823C3610023B7E7A82F0000BC
:1007D0002DE9F05F894604464FF0000ADFF874B156
:1007E000FB44C0F820A02046E1688847002874D068
:1007F000252806D0D4E901219047206A401C2062B8
:10080000F1E700265F462046E16888472028054634
:1008100007DB312D05D2781910F8200C08B10643FA
:10082000F1E7B00701D526F00406C4F81CA00027A4
:10083000C4F818A02A2D09D0284602F03CFD38B390
:1008400004EB8708303DC8F8185019E059F8041B2C
:10085000204604EB87029161E1688847012F054635
:1008600018D1E069002820DA26F020061DE0D8F82B
:10087000180000EB800005EB40003038C8F8180085
:100880002046E1688847054602F015FD0028EED1B4
:10089000012F0AD02E2D08D12046E16888477F1C01
:1008A0000546022F46F02006C4DBA069002803DAC3
:1008B000404246F00106A061F00701D026F0100684
:1008C0006C2D0BD0682D09D04C2D39D06A2D35D028
:1008D000742D35D07A2D33D016E038E0E1682F46FC
:1008E00020468847B842054609D16C2F26D04FF4E0
:1008F0008060E168064320468847054604E06C2F87
:100900001AD04FF4807006430DB3A5F141001928A9
:1009100002D8203546F400664A462946204626601D
:100920004E46FFF771FC80B101280BD0F61D26F072
:10093000070000F1080956E74020E4E78020D8E7E7
:100940000020D6E706F104094DE7284652E7206A61
:10095000BDE8F09F382F000010B5203AC0F00B80A2
:10096000B1E81850203AA0E81850B1E81850A0E8B3
:100970001850BFF4F5AF5FEA027C24BFB1E818500D
:10098000A0E8185044BF18C918C0BDE810405FEA7D
:10099000827C24BF51F8043B40F8043B08BF7047F9
:1009A000D20728BF31F8023B48BF11F8012B28BFFE
:1009B00020F8023B48BF00F8012B704730B5B0F17A
:1009C0000A024FEA900E71F100034EEA817EB0EB0D
:1009D0000E0061EB91014FEA101E4EEA017E10EB12
:1009E0000E0041EB11114FEA102E4EEA016E10EB92
:1009F0000E0041EB11214FEA104E4EEA014E10EB72
:100A00000E0041EB1141401841F100014FEAD000C6
:100A100040EA41704FEAD10110EB80054FEA8104B2
:100A200044EA907444EB01046D1944EB0404521B36
:100A3000A3414FF0000348BF0A3200D530BD401C2F
:100A400041F1000130BD2DE9F0470D46994692462F
:100A5000044600F124080168880604D5E06921F005
:100A60001001216000E00120A84201DD471B00E0E9
:100A70000027A1697A1902EB0900081AA061207801
:100A8000C00602D42046FFF7ADFC002608E0D4E9FA
:100A900001211AF806009047206A401C761C20624B
:100AA0004E45F4DB2078C0060AD52046FFF79AFCB5
:100AB00006E0D4E9012130209047206A401C2062E2
:100AC000381EA7F10107F4DC07E0D4E9012118F88A
:100AD00005009047206A401C2062281EA5F10105F0
:100AE000F3DC2046FFF794FC2078000602D50220B4
:100AF000BDE8F0870120FBE770472DE9FF4F0C466A
:100B00001E464FF0FF378BB0D2E90001DDF8608060
:100B10000A908A46C1F30A5505B93D4600210846A8
:100B20004FF00000BAF1000F00F4400005DA00EBCE
:100B300080004FF4400101EA50004FEA9059B9F1AA
:100B4000010F00DDB9460A9850EA4A000ED044F67B
:100B50001050A5F2FF3545432F14B8F1000F1ED0F9
:100B60007542291E1EDDC9F100021CE0B8F1010F1B
:100B70004FF0000001D0302103E0F24305E02154A2
:100B8000401CB042FBDB30460022002121540B996F
:100B9000C1F80880C1E900200FB0BDE8F08FBD1B8F
:100BA0006D1CDEE74A4600DA694206A800F0F0FB59
:100BB00006AB93E8070003AB83E8070050460A99A9
:100BC00000F0ADFC8DE80700A0F500501F38009044
:100BD0000398002D0ADD42F21F014A460844002313
:100BE00003A90390684600F016FF09E0A0F5005045
:100BF0004A461F38002303A90390684600F020FFEF
:100C00008DE807000004000C03D04FF0FF304108CE
:100C100000E01046B8F1000F03D000220092154604
:100C20001EE0751E05D4FFF7C9FE303262556D1EF9
:100C3000F9D5B3460122084302D000227F1C04E00C
:100C40002078302801D100227F1E002A099784D005
:100C50001DE0112D07DAFFF7B1FE303262556D1C31
:100C600050EA0102F5D1084302D00098C8B10EE065
:100C70000021681E05E0235C625C63542254401E20
:100C8000491C8142F7DBAB46A81B401E099000209F
:100C900004F80B000B98099AC0F80880C0E9002BF3
:100CA0007AE711264FF0000857E72DE9F04F884604
:100CB0000446D21D22F0070191B0D1E90001CDE92F
:100CC0000A0102F0CFFA02460B98C00F01D02D2086
:100CD00007E02068810701D52B2002E0202101EAEE
:100CE000C000032A099001D0072A05DB03464146CC
:100CF000204600F00DFB0BE12078800601D5E0696D
:100D000000E00620B8F1650F814606D0B8F1660F05
:100D100018D0B8F1670F70D131E00020B9F1110F90
:100D2000009001DB112301E009F101030AAA01A9E6
:100D30000CA8FFF7E2FEDDE90C70002609F10105C1
:100D4000834647E001204B4600904FF000470AAA37
:100D500001A90CA8FFF7D1FEDDE90DB00C995D46A5
:100D6000002610B909F101000D18B9EB050003D4F4
:100D7000C0F1FF3609F10105A5EB09002BE0B9F13F
:100D8000010F01DA4FF001090020B9F1110F0090B5
:100D9000484601DD112300E003460AAA01A90CA878
:100DA000FFF7ABFEDDE90C704D4600268346207848
:100DB00000070AD4AB4500DA5D4601A8012D04DD29
:100DC000411911F8011C302907D04F4502DA17F1FB
:100DD000040F04DA012082460FE06D1EEEE7002FBB
:100DE00002DCED1B3E4403E0781CA84200DD7D1CC4
:100DF000B81B00F1010A4FF000472078000703D428
:100E0000AA4501DB4FF0FF3A0021B7F1004F0DF189
:100E100043088DF8431024D002202B23002F01DA41
:100E20007F422D230A21021EA0F1010000DC5FB1E8
:100E300097FBF1FC97FBF1F201FB1C7C17460CF1D0
:100E4000300C08F801CDEEE7A8F10100037021880D
:100E5000090501D5452100E06521A0F1010800F850
:100E6000011C09980FA9A1EB0807FF1D00B1012083
:100E7000411901EBEA70A1693844081A401EA061CB
:100E80002078C00602D42046FFF7ACFA099828B1B2
:100E9000D4E901219047206A401C20622078C006D6
:100EA00022D52046FFF79EFA1EE0002E04DBB34554
:100EB00002DD01A8805D00E03020D4E901219047E7
:100EC000206A401C2062761CAAF101005FEA000A39
:100ED0000AD100F019FAC0680168405CD4E9012128
:100EE0009047206A401C2062281EA5F10105DCDC29
:100EF00007E0D4E9012118F8010B9047206A401C53
:100F00002062381EA7F10107F3DC2046FFF780FAC4
:100F1000032011B041E600002DE9F04F04460D46D4
:100F2000D21D22F0070089B0D0E900974846394623
:100F300002F098F90246F80F01D02D2307E020684F
:100F4000810701D52B2302E0202101EAC0038DF89F
:100F500020300BB1012000E00020032A824601D09E
:100F6000072A04DB2946204600F0D2F93FE1207829
:100F7000800601D40D2500E0E569C7F30A560D2D62
:100F800049DA00214FEA175B08464FF00000002FB6
:100F900000F4400007DA00EB80004FF4400100EB62
:100FA000D07001EA60008115012901DD4FF0FF31A9
:100FB00000224FEA850CBCF1180F06D31346ACF1A2
:100FC00018004FF08052C24003E04FF4801323FA20
:100FD0000CF30CF10C0CBCF1200F04D3ACF1200C81
:100FE00009FA0CF001E007FA0CF000294FF0004874
:100FF00001DD18B90FE00ED140450CD319EB020901
:101000005F4121B9404502D19F4329EA0209BBEB68
:10101000175F00D0761C2088000502D57B487844F5
:1010200002E07A487844193808AA302302F80A30D6
:10103000037C0AF10101002E0AF1020A53546A46A8
:1010400002DC4FF0300101E04FF031014FF00108B8
:101050008DF8001002D0A6F2FF3603E059EA4701EE
:1010600000D06B4E002D02DC2178090704D54FF02B
:1010700002082E218DF80110C44600210BE0C7F3B1
:1010800003433F01C35C491C6D1E02F8083005296B
:1010900008F1010801DA002DF1DC00210CE000EB81
:1010A0001973491C1B786D1E082902F808304FEA95
:1010B000091908F1010801DA002DF0DC21688B061E
:1010C00002D516E0A8F10108E04505DD02EB0803B2
:1010D00013F8013C302BF5D0B8F1000F09DD02EB1D
:1010E000080313F8013C2E2B03D1090701D4A8F102
:1010F0000108002D05DD3E2102F808106D1E08F1E3
:101100000108407C002E02F8080008F1010804DA0A
:101110002D20764202F8080002E02B2002F8080099
:101120000A214FF47A70864208F101080BDB96FB26
:10113000F0F3303302F8083096FBF0F308F10108C1
:1011400000FB136601E0642E0CDB642096FBF0F3D9
:10115000303302F8083096FBF0F308F1010800FB89
:10116000136601E00A2E06DB96FBF1F0303002F840
:10117000080008F1010896FBF1F001FB1060303027
:1011800002F80800A16908F1010808EB050202EB6A
:101190000A00081AA0612078C00602D42046FFF792
:1011A00021F9216A08AE01EB0A00206204E0D4E9CB
:1011B000012116F8010B9047BAF1010AF7D2207805
:1011C000C00602D52046FFF70DF96E4609E016F875
:1011D000010B3E280FD0D4E901219047206A401C22
:1011E0002062B8F10108F2D22046FFF711F909B0E8
:1011F0000320BDE8F08F206A2844206203E0D4E990
:101200000121302090476D1EEBD3F8E71E27000028
:1012100002FCFFFF10B5436913B1AFF3008001E09A
:10122000FFF719F9012010BD127800F124010A70AE
:1012300000224A700122EDE711684FF0FF32E9E722
:1012400010B5436913B1AFF3008001E0FFF7A2F9D5
:10125000012010BD128800F1240182840022C28482
:101260000122EDE711684FF0FF32E9E770B516464D
:101270000C46054600F040F8036893F80101012888
:1012800006D0FF2C0FD8185D68B101202C7070BDFE
:10129000D3F807013246214603F2071303442846D8
:1012A000BDE8704018474FF0FF3070BD754600F044
:1012B000EBF8AE4605006946534620F00700854628
:1012C00018B020B5FFF71AF8BDE820404FF000062F
:1012D0004FF000074FF000084FF0000B21F007011E
:1012E000AC46ACE8C009ACE8C009ACE8C009ACE861
:1012F000C0098D467047000010B500F005F8001DCC
:1013000010BD00BFA923000000487047C4000020A2
:101310002DE9F0411F46044603260168072A01F41F
:10132000006004DB08B116A505E016A503E008B1CE
:1013300015A500E015A521F010002060A069C01ED1
:10134000A0610FB1401EA0612046FFF74BF84FB1DE
:10135000D4E9012138469047206A401C2062C01C15
:10136000206206E0206AFAE7D4E9012115F8010BB2
:101370009047761EF8D22046FFF74AF8BDE8F08184
:101380004E414E006E616E00494E4600696E660029
:101390002DE9F047814616468AB0354878440DC895
:1013A0008DE80D0032487844801C03AC0DC884E8F9
:1013B0000D0041F69B300844372190FBF1F290FB81
:1013C000F1F5A5F1800501FB12041B3C02D5644236
:1013D000012000E00020DFF898A080460027FA44B2
:1013E000AAF1BE0A0EE0E0070AD03246684607EBD3
:1013F000470101230AEB810100F022FB8DE8070081
:1014000064107F1C002CEED1194F7F44AE3F19E0D1
:10141000E80715D007EB04100DF1180A90E80E004C
:101420008AE80E00C068F04201D19819089032464F
:10143000012306A903A800F003FB03AB83E8070020
:101440006D10641C002DE3D14FF001033246694654
:10145000B8F1000F03A802D000F0DDFA01E000F0BF
:10146000EFFAC9E90001C9F808200AB0BDE8F08721
:101470003024000010B50446AFF300802046BDE8DC
:101480001040FEF726BF000000487047A40000206F
:101490004FF0013C50F8042B51F8043B9A4221D103
:1014A000A2EB0C03934313EACC1317D150F8042B8F
:1014B00051F8043B9A4215D1A2EB0C03934313EA73
:1014C000CC130BD150F8042B51F8043B9A4209D1AC
:1014D000A2EB0C03934313EACC13DBD04FF00000D4
:1014E000704700BFD01A01BAB1FA81F101F01801BA
:1014F00022FA01F0CB40C1F12001DBB2C0B2C01A28
:101500002CFA01F3D11A914311EAC311E6D17047C5
:1015100001491820ABBEFEE72600020070475FEAD3
:10152000400C08BF91F0000F4FEA8C234FEAC12214
:1015300043EA51514FEA1C5018BF00F5F0404FEA02
:10154000300018BF41F000415FEA6C5C00F0298078
:10155000BCF1FF3F08BF40F080407047130C06BF4E
:1015600012044FF0100C4FF0000C130E04BF1202C7
:101570000CF1080C130F04BF12010CF1040C930FB3
:1015800004BF92000CF1020CD30F04BF52000CF107
:10159000010C11464FF00002A0F11F00A0EB0C005F
:1015A000704711F0004F08BF704731F000413FF421
:1015B000D5AF0B0C06BF09044FF0100C4FF0000C18
:1015C0000B0E04BF09020CF1080C0B0F04BF09013C
:1015D0000CF1040C8B0F04BF89000CF1020CCB0F33
:1015E00004BF49000CF1010CCCF12003A0EB0C006E
:1015F00022FA03F302FA0CF241EA030100F10100BE
:10160000704720F07F4C80EA030023F07F47ACEB6B
:10161000070303F57C5300F0004003F1FF032DE9BD
:1016200080494FEA154B09B44FEA144325EA0B4EA3
:1016300024EA03480FF2042606EB132749083E78F4
:101640005FEA320203FB0667C7F5000707FB06F6F1
:101650004FEA54374FEAD64606F1020607FB066CFE
:10166000CCF1005C4FEA1C472CEA074C07FB06F460
:101670000CFB06F504EB15464FEA961634BF002026
:101680004FF000404FEAD13706FB07FC4FEA1C4CF5
:101690000CFB0BF7D21B03FB0CF761EB07010CFBF8
:1016A0000EF7B0EB074072EB17420CFB08F734BFA4
:1016B000A2EB0742B2EB074261EB17414FEA0C4441
:1016C0004FEA910706FB07FC4FEA1C4C0CFB0BF79B
:1016D000B0EBC74072EB573203FB0CF734BFA2EB01
:1016E000C742B2EBC74261EB57310CFB0EF7B0EBD0
:1016F000C70072EB57720CFB08F734BFA2EBC702AE
:10170000B2EBC70261EB5771039F4FEA816141EA77
:10171000921104EBCC044FEAD1374FEA826206FB08
:1017200007FC42EA90124FEA80604FEA1C4C0CFB27
:101730000BF7D21B03FB0CF761EB07010CFB0EF759
:10174000B0EB074072EB17420CFB08F734BFA2EB7B
:101750000742B2EB074261EB17414FEA8C554FEA63
:10176000910704EB9C2406FB07FC4FEA1C4C0CFB86
:101770000BF7B0EBC74072EB573203FB0CF734BFEB
:10178000A2EBC742B2EBC74261EB57310CFB0EF73D
:10179000B0EBC70072EB57720CFB08F734BFA2EB3B
:1017A000C702B2EBC70261EB577115EB4C254FEA4C
:1017B000816141EA92114FEA82624FEAD13742EAEF
:1017C000901206FB07FC44F100044FEA80604FEAE8
:1017D0001C4C0CFB0BF7D21B03FB0CF761EB070156
:1017E0000CFB0EF7B0EB074072EB17420CFB08F74F
:1017F00034BFA2EB0742B2EB074261EB174115EB96
:101800001C154FEA813141EA92414FEA823242EAA5
:1018100090424FEA80304FEA0C7644F1000448EAE7
:1018200003434EEA0B484FF0000EB2EB080C71EB8D
:10183000030724BF624639464EEB0E0E4FF0000BF5
:101840000018524149414BEB0B0BB2EB080C71EB0A
:1018500003077BF1000B24BF624639464EEB0E0EA8
:101860004FF0000B0018524149414BEB0B0BB2EB10
:10187000080C71EB03077BF1000B24BF624639466D
:101880004EEB0E0E51EA020718BF46F0010616EBAA
:101890000E7655F1000254F1000103D5BDE889012F
:1018A000BDE80088BDE88901BDE80048B61952418D
:1018B00041EB0101A3F10103704780807F7E7D7CB5
:1018C0007B7A7978777676757473727171706F6ED2
:1018D0006E6D6C6C6B6A6A6968686766666564647D
:1018E000636362616160605F5F5E5E5D5D5C5C5B07
:1018F0005B5A5A5959585857575656555555545476
:10190000535352525251515050504F4F4F4E4E4DD3
:101910004D4D4C4C4C4B4B4B4A4A4A49494948481F
:10192000484747474746464645454544444444435F
:1019300043434342424242414141002B9C4630D402
:1019400077002BD01CB54FEA370703B44FF01000D7
:101950004FF01001BAF1000F06D0BCF1000FDCBF50
:1019600040F0080040F008014FF000000FBCBDE857
:1019700010400BF1010BBBF1010F08BF5FEA170725
:1019800022BF12F1010211F101014FF0004143F1B8
:10199000000300F0004043EA00007047F9D3570805
:1019A000D0E746EA064613F1400F4FEA16461FDD20
:1019B00013F1200FDFBF16430A46002120335B429C
:1019C000BED0C3F1200746EA064602FA07F74FEAFF
:1019D000164646EA0706C3F1200722FA03F201FA87
:1019E00007F721FA03F14FF0000342EA0702A7E7E5
:1019F00046EA020646EA06464FEA164646EA010667
:101A0000BCBF46EA0646360C4FF000034FF000021A
:101A10004FF0000194E72DE9804C9A46934670B44C
:101A200091E8380007C831EA400C48BF34EA430C5B
:101A300003D5FFF7E6FDFFF780FFF0BCBDE8008CA3
:101A40002DE9804C9A46934670B491E8380007C857
:101A500010F0804F08BF13F0804F03D100F005F85D
:101A6000FFF76BFFF0BCBDE8008C20F07F4780EAF9
:101A7000030023F07F4C07EB0C03A3F57C5300F02D
:101A80000040A3F1FE0392F0000F00F0B38095F048
:101A9000000F00F077802DE901494FEA11404FEA2D
:101AA000144621EA004800FB06FC24EA064708FB2E
:101AB00006F607FB08F800FB07F718EB06484CEBA7
:101AC000164C4FEA124B18EB07484FEA15464CEB01
:101AD000174022EA0B4E0BFB06FC25EA06470EFBDD
:101AE00006F607FB0EFE0BFB07F71EEB064E4CEB54
:101AF000164C4FF000061EEB074E4CEB174B18EB45
:101B00000B0840F1000018EB0E0B58EB000840F1F9
:101B100000008F1A4FF000013CBFC943661B14BF81
:101B2000B5EB040C00213CBFC943F61B4FEA174438
:101B30004EEA8E0E27EA04454FEA1C4704FB076273
:101B40002CEA074C05FB07F70CFB05F604FB0CFC25
:101B500016EB074642EB174216EB0C4642EB1C42D3
:101B60001BEB060658EB0202414146EA9E0601D5F0
:101B7000BDE80189B619524141EB0101A3F101030E
:101B8000BDE801894FEA14454FEA114724EA0546AA
:101B900021EA074C05FB07F406FB07F70CFB06F1EF
:101BA00005FB0CFC11EB074144EB17444FEA1247CD
:101BB00011EB0C4144EB1C4422EA074C05FB07F2F5
:101BC00006FB07F70CFB06F605FB0CFC16EB0746BD
:101BD00042EB174216EB0C4642EB1C456A1854F1D7
:101BE000000148BF7047B619524141EB0101A3F112
:101BF0000103704795F0000F37D04FEA11424FEACA
:101C0000144721EA024624EA074C02FB07F106FBCF
:101C100007F70CFB06F402FB0CFC14EB074441EB4A
:101C200017414FEA154714EB0C4441EB1C4125EAE0
:101C3000074C02FB07F506FB07F70CFB06F602FB59
:101C40000CFC16EB074645EB174516EB0C4645EB2F
:101C50001C42121951F1000148BF7047B619524198
:101C600041EB0101A3F1010370474FEA14454FEA2C
:101C7000114724EA054621EA074C05FB07F106FB5C
:101C800007F70CFB06F24FF0000605FB0CFC12EB0D
:101C9000074241EB174112EB0C4251EB1C4148BF8C
:101CA0007047921841EB0101A3F101037047000056
:101CB00010B55648406940F40020544948615448E2
:101CC000006820F4403040F4003051490860084674
:101CD000006820F4402040F4002008600846406A74
:101CE00020F00F00801C48620846406A20F0F00097
:101CF00040F0200146484162006820F4406040F412
:101D00008060434908600846006820F4405040F471
:101D1000805008600846006820F4401040F48010AD
:101D200008600846006820F4400040F48000086025
:101D3000081D006820F48070091D086008460068CE
:101D400020F4007008600846006820F02000086059
:101D50000846006820F0400008600846006820F44B
:101D6000806008600846006820F400600860081F72
:101D7000006820F04070091F08602448806940F026
:101D80000100224988612348406940F0020121484E
:101D900041612148006840F480501F490860081FD5
:101DA000006840F48050091F08601B480C38006828
:101DB00040F4805018490C3908600A2000280DDBD7
:101DC00000BF00BF00F01F020121914042099200B4
:101DD00002F1E022C2F8001100BF00BF00BF40F2D4
:101DE000E73001F095F80A481430006840F480604C
:101DF0000749143108600846006840F02000086078
:101E00000846006840F04000086010BD0010024025
:101E100000080048000001400C04014010B501F02A
:101E2000DFF801F0E7F80020024908700249087065
:101E300010BD00001E0000201F00002010B501F0A2
:101E4000E3F801F0EBF8012002490870024908703C
:101E500010BD00001E0000201F00002070B50446C9
:101E600000253CB140F2E7306043642190FBF1F083
:101E7000401C85B2284601F0DBF870BD70B5044601
:101E800000253CB140F2E7306043642190FBF1F063
:101E9000401C85B2284601F0DBF870BD044800689C
:101EA00020F4006002490860002002490870704771
:101EB00014080048200000200448006840F4006036
:101EC0000249086001200249087070471408004860
:101ED0002000002010B55048406940F400304E49C1
:101EE00048610846406940F48020486108464069DE
:101EF00040F4002048614948006820F4406040F404
:101F0000806046490860081D006820F02000091D17
:101F10000860081F006820F4407040F48070091FBA
:101F20000860081D006820F01000091D08603C488A
:101F3000006820F4407040F4807039490860081D42
:101F4000006820F01000091D08603448006820F087
:101F5000C00040F0400031490860081D006820F0D2
:101F60000800091D08604FF09040006820F4401000
:101F70004FF0904108602848806940F001002649F0
:101F8000886128480069274908612748006840F4AB
:101F9000806025490860081F006840F48060091FC0
:101FA000086021480C38006840F480601E490C39F4
:101FB0000860092000280DDB00BF00BF00F01F02F1
:101FC000012191404209920002F1E022C2F8001181
:101FD00000BF00BF00BF4E2000F008FE00F044FE2E
:101FE0000F481430006820F010000D4914310860CB
:101FF0000A481430006820F00800084914310860CD
:102000000846006820F0200008600846006840F09C
:102010001000086010BD00000010024000040048DD
:1020200000080048000001400C040140044800681A
:1020300020F008000249086000200249087070473B
:10204000140400481C0000200448006840F0080008
:1020500002490860012002490870704714040048D2
:102060001C0000200448006820F0100002490860AD
:102070000020024908707047140800481D00002025
:1020800010B56548406940F400306349486108462E
:10209000806940F4006088614FF09040006820F44F
:1020A000403040F400304FF0904108600846406AEC
:1020B00020F00F00801D48620846006820F4402090
:1020C00040F4002008600846406A20F0F00040F02C
:1020D00060014FF0904041624720504908604F48EE
:1020E0002038006820F0700040F040004B49203953
:1020F0000860084600684A490840001D47492039E1
:10210000086046481038006820F00300401C43492E
:10211000103908600846006820F4407040F4807070
:1021200008600846006820F0F00040F030000860C9
:102130000846006820F4704040F44050086037487A
:102140000838006820F0080034490839086008465B
:10215000006840F0020008600846006820F0800037
:1021600008600846006840F0200008602B481038DE
:10217000006820F00C00001D28491039086008464E
:10218000006820F4406040F480600860234808380C
:10219000006840F0010021490839086008460068DD
:1021A00020F0100008601D481C38006840F0020054
:1021B0001A491C3908600846006820F004000860CD
:1021C00016482838006840F0010014492839086092
:1021D0001B200021002804DB0A07130E114A1354A8
:1021E00006E00A07140E104A00F00F031B1FD45418
:1021F00000BF1B2000280DDB00BF00BF00F01F0246
:10220000012191404209920002F1E022C2F800113E
:1022100000BF00BF00BF10BD00100240282C0140CD
:10222000F8FFFEFF00E400E018ED00E001200449A3
:1022300008800448006840F00200024908607047C6
:102240000C000020140401400120044908800448C7
:10225000006840F004000249086070470E0000204A
:102260001404014010B54FF090400069012121EAAB
:10227000902028B100200A4908800A49087004E02B
:10228000FFF7E2FE012007490870012006490870A7
:102290000648006840F008000449086010BD0000CE
:1022A000060000200800002009000020140401405E
:1022B00010B50D480068012121EA103028B1FFF760
:1022C000ADFD00200949087004E0FFF7B7FD0120CB
:1022D000064908700120064908700648006840F069
:1022E00010000449086010BD100800480A000020D2
:1022F0000B000020140401400B48406940F480109A
:10230000094948610948006820F030000749086021
:102310000846006840F010000860081D006820F0C2
:102320000400091D0860704700100240000C0048BE
:1023300010B58048406940F400307E494861084645
:10234000406940F4802048610846406940F400201C
:1023500048617948006820F00300401C7649086015
:102360004FF09040006820F4407040F480704FF0CF
:10237000904108607048001D006820F001006E491F
:10238000091D08604FF09040406820F010004FF0A9
:10239000904148606948006820F00300401C67498C
:1023A00008600846006820F00C00001D0860084620
:1023B000006820F0300040F0100008600846006817
:1023C00020F0C00040F040000860081D006820F0C8
:1023D0000100091D08600846006820F0020008603E
:1023E0000846006820F0040008600846006820F0F5
:1023F0000800086050481430006820F001004E4981
:10240000143108604FF09040406940F010004FF0E8
:102410009041486149481430006820F00F00474956
:10242000143108601E2000F04DFF4448143000684D
:1024300020F00F004149143108603F481430006813
:1024400040F001003C4914310860322000F04EFF9A
:1024500039481430006820F0010037491431086011
:102460001E2000F02FFF35481430006820F00F00C8
:1024700032491431086030481430006840F00100DF
:102480002D4914310860322000F030FF2A48143002
:10249000006820F001002849143108600A2000F08B
:1024A00011FF26481430006820F00F002349143132
:1024B000086021481430006840F001001E491431C2
:1024C0000860322000F012FF1B481430006820F032
:1024D00001001949143108600A2000F0F3FE2020A1
:1024E00000F07EF8502000F001FF282000F078F87E
:1024F000502000F0FBFE082000F072F8502000F0A1
:10250000F5FE012000F06CF8142000F0DBFE0C203A
:1025100000F066F8502000F0E9FE012000F060F8BD
:10252000142000F0CFFE9F21C72000F0A7FB00F091
:1025300015FC10BD001002400004004800080048CF
:1025400010B5012000F04CF81E2000F0BBFE10BDBD
:102550000FB400B587B009A80690112101A8069B09
:10256000089AFDF7DDFE0020069001A800F00CF8A7
:1025700007B05DF814FB10B50446204600F08EF855
:10258000502000F0B3FE10BD10B50446207800B90D
:1025900010BD2078FFF7EFFF611C0C460846FFF7DF
:1025A000F3FF322000F0A2FE00BFF1E770B5054650
:1025B0000E46502000F09AFE8024012D02D1A01971
:1025C000C4B206E0022D04D104F14000C4B2A01947
:1025D000C4B2204600F004F8502000F087FE70BD21
:1025E000014672B62B4A126822F00102294B1A608A
:1025F0004FF09042526922F010024FF090435A611E
:102600000B09254A126863F30302234B1A60142056
:1026100000BF021EA0F10103D8B2FAD11D4A126810
:1026200042F001021B4B1A60142000BF021EA0F1F1
:102630000103D8B2FAD1174A126822F00102154BF1
:102640001A60142000BF021EA0F10103D8B2FAD113
:10265000114A126861F303020F4B1A600D4A1268A7
:1026600042F001020B4B1A60142000BF021EA0F1C1
:102670000103D8B2FAD1074A126822F00102054BD1
:102680001A60142000BF021EA0F10103D8B2FAD1D3
:1026900062B670471404004814080048014672B638
:1026A000294A126822F00102274B1A604FF090422B
:1026B000526942F010024FF090435A610B09234ACD
:1026C000126863F30302214B1A60142000BF021E3C
:1026D000A0F10100FBD11C4A126842F001021A4B22
:1026E0001A60142000BF021EA0F10100FBD1164A9F
:1026F000126822F00102144B1A60142000BF021E5F
:10270000A0F10100FBD1114A126861F303020F4BE3
:102710001A600D4A126842F001020B4B1A60142035
:1027200000BF021EA0F10100FBD1074A126822F08F
:102730000102054B1A60142000BF021EA0F1010027
:10274000FBD162B67047000014040048140800482A
:102750000C48406940F400300A4948614FF090400D
:10276000006820F440604FF090410860084600681F
:1027700040F4806008600846406820F0200048600F
:1027800070470000001002403D48C06900F08050D2
:1027900038B93B48C06940F080503949C8610846A3
:1027A000C0693848006800F4807060B93548006836
:1027B00040F480703349086000BF3248006800F47C
:1027C00080700028F9D02E48006A20F005002C49BE
:1027D00008620846006A40F4803008620846006AD1
:1027E00020F48030086205E02548006A40F00100CE
:1027F000234908622248006A00F002000028F3D052
:102800001F48006A20F440701D4908620846006AAB
:1028100040F4807008620846C06920F08050C861AA
:102820000846006A40F400400862CA201649086061
:102830005320086014481838006840F0800012499E
:102840001839086000BF10481838006800F04000D0
:102850000028F8D00C481C38006820F040000A49D5
:102860001C3908600948084914390860081F0068C5
:1028700020F08000091F0860FF20034908607047AE
:102880000010024000700040242800400802C800E8
:10289000F0B504460D462848406940F4003026490A
:1028A00048610846C06940F00100C8614FF090409F
:1028B000006820F0404040F000404FF09041086038
:1028C0000846406A20F0704040F080514FF0904040
:1028D0004162406820F400404FF090414860C800D9
:1028E000006820F01000C900086040F2CF20886224
:1028F0000846C462806920F0F00040F06000886102
:102900000846006840F0800008600846006A40F011
:102910000B000862284600F029F8074600F00EF880
:1029200006464FF080404663006840F001004FF0DB
:1029300080410860F0BD000000100240024640F2F5
:10294000CF70504344F6846390FBF3F040F2CF73B2
:10295000181A81B240F2D660814205DB40F29470D1
:10296000814201DC084670470020FCE7014601EB8C
:1029700081004FF4167202EB400080B270470000F5
:1029800004480068002804DD02480068401E014930
:10299000086070471800002030B5024600204FF054
:1029A000E0210861501E486148170F21002804DB10
:1029B0000B071C0E0F4B1C5406E00B071D0E0E4B95
:1029C00000F00F04241F1D5500BF00204FF0E02130
:1029D00088610846006940F0040008610846006903
:1029E00040F0020008610846006940F001000861FB
:1029F00030BD000000E400E018ED00E01948006878
:102A000040F47000174908601748006840F0010062
:102A10001549086008464068144908401249486052
:102A200008460068124908400F49086008460068D7
:102A300020F4802008600846406820F4FE004860CA
:102A40000846C06A20F00F00C8620846006B0949BA
:102A500008400549086300208860C803014980399F
:102A60000860704788ED00E0001002400CC07FF85D
:102A7000FFFFF6FECCFC00FF3C48006820F007009A
:102A80003A4908600846006840F004000860384889
:102A9000006840F480303649086000BF3448006860
:102AA00000F400300028F9D031484068314908402E
:102AB0002F4948600846406820F4FE0048600846F8
:102AC000C06A20F00F00C8620846006820F08070DD
:102AD000086000BF2648006800F00070B0F1007F79
:102AE000F8D02348406820F4701040F4E0102049EA
:102AF00048600846406820F4003048600846406856
:102B000020F4C03040F4803048600846006840F04F
:102B10008070086000BF1648006800F00070002850
:102B2000F9D01348406820F00300801C1049486029
:102B300000BF0F48406800F00C000828F9D10C488D
:102B4000006840F400200A4908600846406820F008
:102B5000F00048600846406820F4E060486008469D
:102B6000406820F460504860704700000020024038
:102B7000001002400CC07FF801461A48806940F4FA
:102B80008030184A90611848006820F01000164AFA
:102B9000106040F2CF20906240F6C410D062104620
:102BA000006840F0800010601046006840F00100AE
:102BB00010601046C06840F00100D0601820002866
:102BC0000DDB00BF00BF00F01F0301229A40430944
:102BD0009B0003F1E023C3F8002100BF00BF00BF4A
:102BE00070470000001002400040014001461C48B0
:102BF000806940F400301A4A90611A48006820F059
:102C00001000184A106040F2CF20164A2832106097
:102C1000101D01601348006840F08000114A1060E8
:102C20001046006840F0010010600E480C3000684B
:102C300040F001000B4A0C321060192000280DDB17
:102C400000BF00BF00F01F0301229A4043099B0010
:102C500003F1E023C3F8002100BF00BF00BF7047AD
:102C600000100240004401400348006840F4004066
:102C70000149086070470000444401402A4A5269F3
:102C800042F48022284B5A611A46926942F480220B
:102C90009A61264A126822F4404242F40042234BD1
:102CA0001A60224A2032126822F0704242F08052AA
:102CB0001E4B20331A601D4A121D126822F080023A
:102CC0001A4B1B1D1A601A4A126822F01002184B88
:102CD0001A6040F21F32164B28331A601A1D10601A
:102CE000134A1832126822F0F00242F06002104BD0
:102CF00018331A600E4A126842F080020C4B1A60B8
:102D00000B4A2032126822F00702521D084B203372
:102D10001A609F22064B34331A60054A126842F04B
:102D20000102034B1A607047001002400004004883
:102D3000004801400146C1F16402C7235A4364239D
:102D400092FBF3F290B270470348006820F4004011
:102D5000014908607047000044480140034800688A
:102D600040F40040014908607047000044480140B9
:102D700070B504460D4654B1064804602846FFF776
:102D8000D9FF064616B103480830066001E0FFF798
:102D9000DBFF70BD2C4801400B48006900F00100CA
:102DA00080B10120094908700A20094908700020F3
:102DB00008490880084908800348006920F001009C
:102DC00001490861704700000040014015000020E3
:102DD000160000200E0000200C0000203048006883
:102DE00000F0020050B32E4824300068012101EBAE
:102DF00040002C49B1FBF0F02B49088002202B4900
:102E0000087027481030006820F001002449103174
:102E100008600846006840F0100008602048001F65
:102E2000006820F002001E49091F0860084600687B
:102E300040F00400086000201D4908801848006820
:102E400000F0040050B3164828300068012101EB5F
:102E500040001449B1FBF0F01549088001201349E6
:102E600008700F481030006840F001000C49103124
:102E700008600846006820F0100008600848001F3D
:102E8000006840F002000649091F08600846006813
:102E900020F004000860002003490880704700000B
:102EA000102C014040420F001000002014000020B0
:102EB000120000201348006800F0010008B3124817
:102EC0000088002817DD10490988491E0E4A118024
:102ED0000E49096841F020010C4A1160322000BF00
:102EE000011EA0F10100FBD10849096821F0200171
:102EF000064A116000BF0348006820F00100014944
:102F00000860704710440140060000201404004887
:102F10002F49C96941F002012D4AD1612D49096843
:102F200021F010012B4A116040F2CF21294A2832AA
:102F30001160111D08600021264A3C321160121DEB
:102F4000116024491C310968234A114041F0600195
:102F5000204A1C32116011460968204A114041F490
:102F6000C0411C4A1C3211601146096841F0080139
:102F700011601146096841F400611160111D096872
:102F800021F40061121D11601146096821F400410D
:102F900011601146096841F4807111601146096899
:102FA00041F4805111600B49096841F08001094AE0
:102FB00011601146096841F0010111600549443171
:102FC000096841F40041034A44321160704700002F
:102FD00000100240000400408FFFFEFFFF8FFFFE45
:102FE0000348006820F480700149086070470000C1
:102FF000200400400348006820F480500149086024
:1030000070470000200400400348006840F48070CE
:103010000149086070470000200400400348006830
:1030200040F48050014908607047000020040040CF
:103030004B2802DD0549086007E018B90021034A62
:10304000116002E04B21014A116070473C040040CE
:103050004B2802DD0549086007E018B90021034A42
:10306000116002E04B21014A1160704740040040AA
:1030700001465048406940F400304E4A50614FF0DC
:103080009040006820F0300040F020004FF0904267
:1030900010601046006A20F4706040F4E060106236
:1030A0001046006820F0C00040F08000106010461C
:1030B000006A20F4704040F4E0401062104600685E
:1030C00020F00C0040F0080010601046006A20F06C
:1030D000F00040F0700010621046006820F003001D
:1030E000801C10601046006A20F00F00C01D1062A6
:1030F0003048C06940F400302E4AD0612E48006844
:1031000020F001002C4A10601046006820F01020CA
:103110001060101D006820F40040121D1060101F88
:10312000006820F40040121F1060101D006820F499
:103130004050121D1060101F006820F48060121FA4
:10314000106040F271201C4A0C3210601A4800686E
:1031500040F00C00184A10601046006840F0200053
:1031600010601046006840F00100106000BF124877
:103170001C30006800F400100028F8D000BF0E4892
:103180001C30006800F480000028F8D026200028B9
:103190000DDB00BF00BF00F01F0301229A4043096E
:1031A0009B0003F1E023C3F8002100BF00BF00BF74
:1031B0007047000000100240004400400FB400B50A
:1031C00089B00BA8089020216846089B0A9AFDF751
:1031D000A7F800200890684600F012F809B05DF8E2
:1031E00014FB000000BF0549096801F080010029B7
:1031F000F9D002490C310880704700001C4400409F
:1032000000B5024603E012F8010BFFF7EBFF107860
:103210000028F8D100BD000010B50E4800880E4906
:103220000E4A1278885408460C490978405C5828A0
:1032300004D1402208490A48FDF78CF80748007875
:10324000401C0649087008460078402801D100203B
:10325000087010BD24440040240000201700002006
:103260006400002003B401984100009850EAC12096
:1032700018BF04204A0D18BF40F0010040F2FF7251
:10328000B2EB515F08BF40F00200012808BF0520E3
:1032900002B0704700280DDB00BF00BF00F01F0226
:1032A000012191404209920002F1E022C2F800118E
:1032B00000BF00BF704730380A2801D20120704794
:1032C0000020704700210CE000224FF0E0239A61BB
:1032D0003222054B1A6000BF034A1268002AFBD154
:1032E000491C8142F0D370471800002000214FF0A4
:1032F000E02291611421B0FBF1F1491C034A1160F5
:1033000000BF024909680029FBD17047180000205E
:1033100010B52E48406940F480202C4948612C4863
:10332000006820F00C002A4908600846006820F078
:103330003000086026482030006820F0F000244962
:10334000203108600846006820F4706008601F485B
:10335000806940F001001D4988611E48806820F4A2
:10336000706040F480701B4988600846806820F0D7
:10337000F00040F0100088601748006820F004005A
:10338000154908600846006820F002000860081F20
:10339000006840F00400091F08600846006840F01B
:1033A000020008600C480C38006840F004000A492C
:1033B0000C3908600846006840F0020008600820E8
:1033C000FFF768FF0720FFF765FF10BD0010024000
:1033D00000040048000001400C040140FFF74CFBD2
:1033E0004FF4B460FFF7D8FAFEF7A2FFFFF7A8F892
:1033F000FEF782FFFFF7ACF97B4D7CA0FFF7A8F842
:103400004FF4FA70FFF75EFFFFF79AF800210120F2
:10341000FFF7CCF87AA0FFF79BF80E210120FFF709
:10342000C5F879A0FFF794F8FFF772FF00BFFEF729
:1034300051FDFEF717FE7548006840F01000734913
:103440000860FEF7F3FD0120714908700020714902
:1034500008703C2140F2CF70FFF71AFA00BFFEF768
:1034600027FCFEF71BFDFEF7D9FC01206A49087016
:1034700000206A49087001266B240024FEF71CFD19
:10348000FEF7DCFCFEF7FCFD6548FFF775FB4FF42B
:10349000E130FFF7EDFDFFF777F90520FFF712FFA9
:1034A0005021C720FFF764FC9DE06D1E5D488542FA
:1034B00006D05D48854203D04CF25030854206D19B
:1034C0005A48006880F004005849086007E035B9A0
:1034D0005648006880F0040054490860424D544842
:1034E000007801283ED14A48007850B900210220D6
:1034F000FFF75CF84FA0FFF72BF850A0FFF75EFE38
:1035000006E000210220FFF751F84FA0FFF720F856
:103510004148007850B90B210220FFF747F845A039
:10352000FFF716F845A0FFF749FE18E04848007875
:10353000022814D10A21FFF739F846480088642888
:1035400005DA4448018844A0FFF702F804E0414846
:10355000018843A0FEF7FCFF00203D4908700020D1
:10356000334908702D480078A0B12B480078012815
:1035700006D10021FFF71AF83BA0FEF7E9FF06E0AD
:1035800000210120FFF712F83AA0FEF7E1FF00202A
:1035900022490870692C23DCA01984B21E480078E7
:1035A00001281AD1642C12DD2A4800880F2814DD66
:1035B00028480088692810DA26490988C8B2FEF729
:1035C0004DFC24490988C8B2FEF758FC05E0E0B27A
:1035D000FEF744FCE0B2FEF751FC6420FFF772FEF8
:1035E000692C00D1642460E7C0C62D004D6174745D
:1035F0002048202D204553452059723200000000FC
:103600005354455000000000444300001404004897
:1036100008000020090000200A0000200B00002004
:1036200000127A00092E020048E80100140C00483C
:1036300015000020464C5421000000005354502037
:10364000464C5421000000002020202000000000F3
:103650001400002010000020202575487A0000008A
:103660002575487A0000000044433A204E6F726D81
:10367000616C200044433A204641554C54212000BF
:1036800010B500290AD00878002807D005487844EA
:10369000FDF7FEFE002801D0002010BD024878444E
:1036A00010BD00007A0100007201000010B5002971
:1036B0000AD00878002807D005487844FDF7E8FECE
:1036C000002801D0002010BD0248784410BD000041
:1036D0006A010000620100004FF04070E1EE100A44
:1036E0007047FDF7E2BAFDF717BC000000000000CC
:1036F000000000003031323334353637383941423A
:103700004344454640305800303132333435363743
:1037100038396162636465664030780004000008EF
:1037200000000000000000020001000010303132F3
:1037300033343536373839616263646566787000D2
:1037400030313233343536373839414243444546D7
:103750005850000002400000000000A000000000DF
:1037600005400000000000C8000000000C40000000
:103770000000409C00000000194000000020BCBE7A
:103780000000000034400000BFC91B8E0000000490
:10379000B5400000504BCFD06607E2CF01000000DB
:1037A0006C4100003E8251AADFEEA7340100000008
:1037B000D9420000DCB5A0E23A301F97FFFFFFFFBF
:1037C000B4450000FD25A0C8E9A3C14FFFFFFFFFDE
:1037D000FF3F00000000008000000000FF3F0000ED
:1037E00000000080000000003439000800000020C4
:1037F00024000000D00100085839000824000020EF
:10380000E4060000EC0100081C000000430000007A
:10381000F8FFFFFF0C0000000E0000000F0000008A
:103820002E0000001001000043000000F8FFFFFF21
:1038300000404040404040404040414141414140C3
:103840004040404040404040404040404040404078
:103850004005020202020202020202020202020207
:10386000022020202020202020202002020202020C
:103870000202909090909090101010101010101064
:103880001010101010101010101010100202020270
:1038900002028888888888880808080808080808B4
:1038A00008080808080808080808080802020202B0
:1038B00040000000000000000000000000000000C8
:1038C00000000000000000000000000000000000F8
:1038D00000000000000000000000000000000000E8
:1038E00000000000000000000000000000000000D8
:1038F00000000000000000000000000000000000C8
:1039000000000000000000000000000000000000B7
:1039100000000000000000000000000000000000A7
:103920000000000000000000000000000000000097
:103930000000000000000000000000000100010085
:10394000000000000000000000000A00000000006D
:0839500000000000000000006F
:040000050800019559
:00000001FF
