:020000040800F2
:1000000068060020350200083D0200083F02000893
:1000100041020008430200084502000800000000F9
:10002000000000000000000000000000470200087F
:1000300049020008000000004B02000829030008E4
:100040004F0200084F0200084F0200084F0200084C
:100050004F0200084F0200084F0200084F0200083C
:100060004F0200084F0200084F0200084F0200082C
:100070004F0200084F0200084F0200084F0200081C
:100080004F0200084F0200084F0200084F0200080C
:100090004F0200084F0200084F0200084F020008FC
:1000A0004F0200084F0200084F0200084F020008EC
:1000B0004F0200084F0200084F0200084F020008DC
:1000C0004F0200084F0200084F0200084F020008CC
:1000D0004F0200084F0200084F0200084F020008BC
:1000E0004F0200084F0200084F0200084F020008AC
:1000F0004F0200084F0200084F0200084F0200089C
:100100004F02000800000000000000004F0200083D
:100110004F0200084F0200084F0200084F0200087B
:100120004F0200084F0200084F0200084F0200086B
:100130004F0200084F02000800000000000000000D
:100140004F0200084F0200084F02000800000000A4
:10015000000000000000000000000000000000009F
:100160004F0200084F0200084F0200084F0200082B
:100170004F0200084F0200084F0200084F0200081B
:100180004F0200084F0200080000000000000000BD
:100190004F02000800F002F800F03CF80AA090E8D6
:1001A000000C82448344AAF10107DA4501D100F032
:1001B00031F8AFF2090EBAE80F0013F0010F18BFC3
:1001C000FB1A43F001031847B8030000D8030000EE
:1001D000103A24BF78C878C1FAD8520724BF30C873
:1001E00030C144BF04680C60704700000023002445
:1001F00000250026103A28BF78C1FBD8520728BF37
:1002000030C148BF0B6070471FB500F0B3F91FBD88
:1002100010B510BD00F031F81146FFF7F5FF00F002
:1002200093F900F04FF803B4FFF7F2FF03BC00F0BE
:1002300057F800000948804709480047FEE7FEE7F5
:10024000FEE7FEE7FEE7FEE7FEE7FEE7FEE7FEE786
:1002500004480549054A064B70470000A5030008FD
:100260009501000868000020680600206802002050
:1002700068020020704770477047754600F02CF800
:10028000AE4605006946534620F00700854618B083
:1002900020B5FFF7DDFFBDE820404FF000064FF02E
:1002A00000074FF000084FF0000B21F00701AC46AB
:1002B000ACE8C009ACE8C009ACE8C009ACE8C009CA
:1002C0008D46704710B50446AFF300802046BDE868
:1002D0001040FFF7A8BF000000487047040000204E
:1002E00001491820ABBEFEE726000200704700005F
:1002F0000C48406940F400300A4948614FF0904092
:10030000006820F440604FF09041086008460068A3
:1003100040F4806008600846406820F02000486093
:10032000704700000010024004480068002804DD07
:1003300002480068401E0149086070470000002024
:1003400030B5024600204FF0E0210861501E4861A0
:1003500048170F21002804DB0B071C0E0F4B1C5401
:1003600006E00B071D0E0E4B00F00F04241F1D5559
:1003700000BF00204FF0E02188610846006940F08E
:10038000040008610846006940F002000861084660
:10039000006940F00100086130BD000000E400E0A9
:1003A00018ED00E01948006840F470001749086033
:1003B0001748006840F00100154908600846406889
:1003C000144908401249486008460068124908402C
:1003D0000F4908600846006820F48020086008463D
:1003E000406820F4FE0048600846C06A20F00F0014
:1003F000C8620846006B09490840054908630020A7
:100400008860C803014980390860704788ED00E0C2
:10041000001002400CC07FF8FFFFF6FECCFC00FF8E
:100420003C48006820F007003A4908600846006828
:1004300040F0040008603848006840F480303649D5
:10044000086000BF3448006800F400300028F9D08C
:1004500031484068314908402F49486008464068A3
:1004600020F4FE0048600846C06A20F00F00C86211
:100470000846006820F08070086000BF26480068C9
:1004800000F00070B0F1007FF8D02348406820F4FD
:10049000701040F4E010204948600846406820F49D
:1004A000003048600846406820F4C03040F4803096
:1004B00048600846006840F08070086000BF164839
:1004C000006800F000700028F9D01348406820F060
:1004D0000300801C1049486000BF0F48406800F0CE
:1004E0000C000828F9D10C48006840F400200A49A3
:1004F00008600846406820F0F00048600846406800
:1005000020F4E06048600846406820F4605048608D
:100510007047000000200240001002400CC07FF82D
:1005200000210CE000224FF0E0239A613222054BBB
:100530001A6000BF034A1268002AFBD1491C81429D
:10054000F0D3704700000020FFF76AFF4FF4B4605B
:10055000FFF7F6FEFFF7CCFE0BE04FF0904040694E
:1005600080F020004FF0904148614FF4FA70FFF79F
:10057000D7FFF2E74FF04070E1EE100A704700003D
:10058000A00500080000002004000000D0010008C1
:10059000A40500080400002064060000EC01000827
:0405A0000000000057
:040000050800019559
:00000001FF
